{
  "contractName": "GasStation",
  "abi": [
    {
      "anonymous": false,
      "inputs": [],
      "name": "echo",
      "type": "event"
    },
    {
      "anonymous": false,
      "inputs": [
        {
          "indexed": false,
          "name": "val",
          "type": "uint256"
        }
      ],
      "name": "valor",
      "type": "event"
    },
    {
      "anonymous": false,
      "inputs": [
        {
          "indexed": false,
          "name": "id",
          "type": "uint256"
        },
        {
          "indexed": false,
          "name": "typeGas",
          "type": "string"
        },
        {
          "indexed": false,
          "name": "price",
          "type": "uint256"
        }
      ],
      "name": "viewGasInfo",
      "type": "event"
    },
    {
      "anonymous": false,
      "inputs": [
        {
          "indexed": false,
          "name": "error",
          "type": "string"
        }
      ],
      "name": "error",
      "type": "event"
    },
    {
      "anonymous": false,
      "inputs": [
        {
          "indexed": false,
          "name": "tipo",
          "type": "uint8"
        },
        {
          "indexed": false,
          "name": "cantidadSolicitada",
          "type": "uint256"
        },
        {
          "indexed": false,
          "name": "monto",
          "type": "uint256"
        }
      ],
      "name": "consignacionRealizada",
      "type": "event"
    },
    {
      "anonymous": false,
      "inputs": [
        {
          "indexed": false,
          "name": "Vehiculo",
          "type": "uint256"
        },
        {
          "indexed": false,
          "name": "cantidadSolicitada",
          "type": "uint256"
        }
      ],
      "name": "entregaCombustible",
      "type": "event"
    },
    {
      "constant": false,
      "inputs": [
        {
          "name": "id",
          "type": "uint256"
        },
        {
          "name": "deposit",
          "type": "uint256"
        }
      ],
      "name": "setStation",
      "outputs": [],
      "payable": false,
      "stateMutability": "nonpayable",
      "type": "function"
    },
    {
      "constant": false,
      "inputs": [
        {
          "name": "id",
          "type": "uint256"
        },
        {
          "name": "tipo",
          "type": "uint8"
        },
        {
          "name": "price",
          "type": "uint256"
        },
        {
          "name": "cantidadDisp",
          "type": "uint256"
        }
      ],
      "name": "setStationFuel",
      "outputs": [],
      "payable": false,
      "stateMutability": "nonpayable",
      "type": "function"
    },
    {
      "constant": true,
      "inputs": [
        {
          "name": "idStation",
          "type": "uint256"
        }
      ],
      "name": "getStationGasInfo",
      "outputs": [
        {
          "name": "",
          "type": "uint256"
        },
        {
          "name": "",
          "type": "uint256"
        }
      ],
      "payable": false,
      "stateMutability": "view",
      "type": "function"
    },
    {
      "constant": true,
      "inputs": [
        {
          "name": "idStation",
          "type": "uint256"
        },
        {
          "name": "idfuel",
          "type": "uint256"
        }
      ],
      "name": "getGasInfo",
      "outputs": [
        {
          "name": "",
          "type": "uint8"
        },
        {
          "name": "",
          "type": "uint256"
        },
        {
          "name": "",
          "type": "uint256"
        }
      ],
      "payable": false,
      "stateMutability": "view",
      "type": "function"
    },
    {
      "constant": false,
      "inputs": [
        {
          "name": "idStation",
          "type": "uint256"
        },
        {
          "name": "idVehiculo",
          "type": "uint256"
        },
        {
          "name": "tipo",
          "type": "uint8"
        },
        {
          "name": "cantidadSolicitada",
          "type": "uint256"
        }
      ],
      "name": "sendDeposit",
      "outputs": [],
      "payable": true,
      "stateMutability": "payable",
      "type": "function"
    },
    {
      "constant": true,
      "inputs": [
        {
          "name": "idStation",
          "type": "uint256"
        },
        {
          "name": "idVehiculo",
          "type": "uint256"
        }
      ],
      "name": "verificarDeposit",
      "outputs": [
        {
          "name": "",
          "type": "bool"
        }
      ],
      "payable": false,
      "stateMutability": "view",
      "type": "function"
    },
    {
      "constant": false,
      "inputs": [
        {
          "name": "_station",
          "type": "uint256"
        },
        {
          "name": "Vehiculo",
          "type": "uint256"
        },
        {
          "name": "fuel",
          "type": "uint256"
        },
        {
          "name": "cantidadSolicitada",
          "type": "uint256"
        }
      ],
      "name": "sendFuel",
      "outputs": [],
      "payable": false,
      "stateMutability": "nonpayable",
      "type": "function"
    },
    {
      "constant": true,
      "inputs": [
        {
          "name": "_station",
          "type": "uint256"
        },
        {
          "name": "Vehiculo",
          "type": "uint256"
        }
      ],
      "name": "consultarSaldoEstacion",
      "outputs": [
        {
          "name": "",
          "type": "uint256"
        }
      ],
      "payable": false,
      "stateMutability": "view",
      "type": "function"
    },
    {
      "constant": true,
      "inputs": [
        {
          "name": "_station",
          "type": "uint256"
        }
      ],
      "name": "SaldoEstacion",
      "outputs": [
        {
          "name": "",
          "type": "uint256"
        }
      ],
      "payable": false,
      "stateMutability": "view",
      "type": "function"
    }
  ],
  "bytecode": "0x608060405234801561001057600080fd5b50610e4a806100206000396000f3fe6080604052600436106100865760003560e01c8063599a601511610059578063599a6015146101d1578063636fa6a71461022a578063db86575814610279578063de6b42c6146102d6578063e426c3681461034b57610086565b80630e38fd7b1461008b57806311caec00146100d05780631fec1e5c1461012c57806357e968991461017b575b600080fd5b34801561009757600080fd5b506100ce600480360360408110156100ae57600080fd5b8101908080359060200190929190803590602001909291905050506103a4565b005b3480156100dc57600080fd5b5061012a600480360360808110156100f357600080fd5b8101908080359060200190929190803560ff1690602001909291908035906020019092919080359060200190929190505050610468565b005b6101796004803603608081101561014257600080fd5b810190808035906020019092919080359060200190929190803560ff16906020019092919080359060200190929190505050610553565b005b34801561018757600080fd5b506101b46004803603602081101561019e57600080fd5b8101908080359060200190929190505050610751565b604051808381526020018281526020019250505060405180910390f35b3480156101dd57600080fd5b50610214600480360360408110156101f457600080fd5b8101908080359060200190929190803590602001909291905050506107c5565b6040518082815260200191505060405180910390f35b34801561023657600080fd5b506102636004803603602081101561024d57600080fd5b81019080803590602001909291905050506107f9565b6040518082815260200191505060405180910390f35b34801561028557600080fd5b506102bc6004803603604081101561029c57600080fd5b810190808035906020019092919080359060200190929190505050610816565b604051808215151515815260200191505060405180910390f35b3480156102e257600080fd5b50610319600480360360408110156102f957600080fd5b810190808035906020019092919080359060200190929190505050610857565b6040518084600181111561032957fe5b60ff168152602001838152602001828152602001935050505060405180910390f35b34801561035757600080fd5b506103a26004803603608081101561036e57600080fd5b810190808035906020019092919080359060200190929190803590602001909291908035906020019092919050505061090c565b005b3360008084815260200190815260200160002060000160006101000a81548173ffffffffffffffffffffffffffffffffffffffff021916908373ffffffffffffffffffffffffffffffffffffffff160217905550670de0b6b3a76400008102600080848152602001908152602001600020600201819055508160008084815260200190815260200160002060010181905550600160008084815260200190815260200160002060050160006101000a81548160ff0219169083151502179055505050565b610470610de9565b604051806080016040528085600181111561048757fe5b8152602001670de0b6b3a764000085028152602001838152602001600115158152509050600080868152602001908152602001600020600301819080600181540180825580915050906001820390600052602060002090600402016000909192909190915060008201518160000160006101000a81548160ff0219169083600181111561051057fe5b0217905550602082015181600101556040820151816002015560608201518160030160006101000a81548160ff0219169083151502179055505050505050505050565b6000151560008086815260200190815260200160002060050160009054906101000a900460ff161515148061059c57506000808581526020019081526020016000206002015434105b156105a657600080fd5b33600080868152602001908152602001600020600401600085815260200190815260200160002060000160006101000a81548173ffffffffffffffffffffffffffffffffffffffff021916908373ffffffffffffffffffffffffffffffffffffffff1602179055508060008086815260200190815260200160002060040160008581526020019081526020016000206003018190555081600080868152602001908152602001600020600401600085815260200190815260200160002060020160006101000a81548160ff0219169083600181111561068157fe5b0217905550346000808681526020019081526020016000206004016000858152602001908152602001600020600401819055506001600080868152602001908152602001600020600401600085815260200190815260200160002060050160006101000a81548160ff0219169083151502179055507fd9c99beafe1e5cedc77d3dac6c4dcc2503d8640c1c24929489c60a06eff534878282346040518084600181111561072a57fe5b60ff168152602001838152602001828152602001935050505060405180910390a150505050565b60008060008090506001151560008086815260200190815260200160002060050160009054906101000a900460ff16151514156107a4576000808581526020019081526020016000206003018054905090505b60008085815260200190815260200160002060020154819250925050915091565b6000806000848152602001908152602001600020600401600083815260200190815260200160002060040154905092915050565b600060016000838152602001908152602001600020549050919050565b6000806000848152602001908152602001600020600401600083815260200190815260200160002060050160009054906101000a900460ff16905092915050565b6000806000806000868152602001908152602001600020600301848154811061087c57fe5b906000526020600020906004020160000160009054906101000a900460ff1660008087815260200190815260200160002060030185815481106108bb57fe5b90600052602060002090600402016001015460008088815260200190815260200160002060030186815481106108ed57fe5b9060005260206000209060040201600201549250925092509250925092565b7f29f4acb0ed8a5b2201afd96e6e3bcbca8f3ea01c1a7ccdacf8c292a92d60067f60405160405180910390a1600115156109468585610816565b15151415610dde577f29f4acb0ed8a5b2201afd96e6e3bcbca8f3ea01c1a7ccdacf8c292a92d60067f60405160405180910390a17f62550916675f79fb24eb034c5525ea082c1ee5d55915b3599fa9760af26e4ae38160008087815260200190815260200160002060030184815481106109bc57fe5b906000526020600020906004020160010154026040518082815260200191505060405180910390a160008085815260200190815260200160002060000160009054906101000a900473ffffffffffffffffffffffffffffffffffffffff1673ffffffffffffffffffffffffffffffffffffffff166108fc826000808881526020019081526020016000206003018581548110610a5457fe5b906000526020600020906004020160010154029081150290604051600060405180830381858888f19350505050158015610a92573d6000803e3d6000fd5b507f62550916675f79fb24eb034c5525ea082c1ee5d55915b3599fa9760af26e4ae3816000808781526020019081526020016000206003018481548110610ad557fe5b90600052602060002090600402016001015402600080878152602001908152602001600020600401600086815260200190815260200160002060040154036040518082815260200191505060405180910390a1600080858152602001908152602001600020600401600084815260200190815260200160002060000160009054906101000a900473ffffffffffffffffffffffffffffffffffffffff1673ffffffffffffffffffffffffffffffffffffffff166108fc826000808881526020019081526020016000206003018581548110610bac57fe5b90600052602060002090600402016001015402600080888152602001908152602001600020600401600087815260200190815260200160002060040154039081150290604051600060405180830381858888f19350505050158015610c15573d6000803e3d6000fd5b50806000808681526020019081526020016000206003018381548110610c3757fe5b906000526020600020906004020160020160008282540392505081905550806000808681526020019081526020016000206003018381548110610c7657fe5b90600052602060002090600402016001015402600080868152602001908152602001600020600401600085815260200190815260200160002060040160008282540392505081905550806000808681526020019081526020016000206003018381548110610ce057fe5b9060005260206000209060040201600101540260016000868152602001908152602001600020819055506000808581526020019081526020016000206004016000848152602001908152602001600020600080820160006101000a81549073ffffffffffffffffffffffffffffffffffffffff021916905560018201600090556002820160006101000a81549060ff0219169055600382016000905560048201600090556005820160006101000a81549060ff021916905550507f64c275216a8c945a028374454f2413798aafdd97a4a48b13bae077045e166a4b8382604051808381526020018281526020019250505060405180910390a1610de3565b600080fd5b50505050565b604051806080016040528060006001811115610e0157fe5b81526020016000815260200160008152602001600015158152509056fea165627a7a72305820b64aa9dbdc70e7a5bdfff25955b1cae8af10fd157d1cb3c54f5323dc88803b080029",
  "source": "pragma solidity ^0.5.0;\ncontract GasStation {\n    enum TipoGas{Extra,Corriente}\n   \n    struct Vehicle{\n        address payable direccion;\n        uint id;\n        TipoGas tipo;\n        uint cantidadSolicitada;\n        uint montoConsignado;\n        bool creado;\n    }\n    struct Gas {\n        TipoGas typeGas;\n        uint price;\n        uint cantidadDisponible;\n        bool creado;\n    }\n\n    struct Station {\n        address payable direccion;\n        uint id;\n        uint Deposit;\n        Gas[] fuels; //combustibles ofrecidos en la estacion\n        mapping (uint => Vehicle) vehicles; //estaciones\n        bool creado;\n    }\n\n    mapping (uint => Station) stations; //estaciones\n    mapping (uint => uint) saldoStacion; //saldo disponible para ser retirado por la gasolinera  \n   \n    event echo();\n    event valor(uint val);\n    event viewGasInfo(uint id, string typeGas, uint price);\n    event error(string error);\n    event consignacionRealizada(TipoGas tipo, uint cantidadSolicitada, uint monto);\n    event entregaCombustible(uint Vehiculo,uint cantidadSolicitada);\n   \n    modifier estacionNoExiste(uint id){\n        if(stations[id].creado){\n            revert();\n        }\n        _;\n    }\n   \n    //registro gas station\n    function setStation(uint id,uint deposit) public {\n        stations[id].direccion=msg.sender;\n        stations[id].Deposit = deposit*1000000000000000000;\n        stations[id].id=id;\n        stations[id].creado=true;\n    }\n    //agregar gas a stacion\n    function setStationFuel(uint id,TipoGas tipo, uint price, uint cantidadDisp) public {\n        Gas memory gas = Gas(tipo, price*1000000000000000000,cantidadDisp,true);\n        stations[id].fuels.push(gas);\n    }\n   \n    //getGasInfo cantidad de Fuels\n    function getStationGasInfo(uint idStation ) public view returns (uint,uint){\n       uint lengthFuels=0;\n        if(stations[idStation].creado==true){\n          lengthFuels=stations[idStation].fuels.length;\n        }\n        return (stations[idStation].Deposit,lengthFuels);   \n    }\n    \n    //get fuel\n    function getGasInfo(uint idStation, uint idfuel) public view returns (TipoGas, uint,uint) {\n        return (stations[idStation].fuels[idfuel].typeGas, stations[idStation].fuels[idfuel].price,stations[idStation].fuels[idfuel].cantidadDisponible);\n    }\n\n    //enviar deposito\n    function sendDeposit(uint idStation, uint idVehiculo, TipoGas tipo,uint cantidadSolicitada ) public payable {\n        if(stations[idStation].creado==false || msg.value<stations[idStation].Deposit){\n            revert();\n        }\n        stations[idStation].vehicles[idVehiculo].direccion=msg.sender;\n        stations[idStation].vehicles[idVehiculo]. cantidadSolicitada=cantidadSolicitada;\n        stations[idStation].vehicles[idVehiculo].tipo=tipo;\n        stations[idStation].vehicles[idVehiculo].montoConsignado=msg.value;\n        stations[idStation].vehicles[idVehiculo].creado=true;\n        emit consignacionRealizada(tipo, cantidadSolicitada, msg.value);\n    }\n    //verificar deposito\n    function verificarDeposit(uint idStation, uint idVehiculo) public view returns (bool){\n        return (stations[idStation].vehicles[idVehiculo].creado);\n    }\n    //enviar conbustible\n    function sendFuel(uint _station,uint Vehiculo, uint fuel, uint cantidadSolicitada) public{\n        //verificar deposito, montoconsignado>precio*cant ,  gas disponible\n        /*&&\n        stations[_station].vehicles[Vehiculo].montoConsignado> stations[_station].fuels[fuel].price*cantidadSolicitada &&\n        stations[_station].fuels[fuel].cantidadDisponible> cantidadSolicitada*/\n         emit echo();\n        if(verificarDeposit(_station,Vehiculo)==true){\n            emit echo();\n            emit valor(stations[_station].fuels[fuel].price*cantidadSolicitada);\n            stations[_station].direccion.transfer(stations[_station].fuels[fuel].price*cantidadSolicitada);\n            emit valor(stations[_station].vehicles[Vehiculo].montoConsignado-(stations[_station].fuels[fuel].price*cantidadSolicitada));                        \n           \n            stations[_station].vehicles[Vehiculo].direccion.transfer(stations[_station].vehicles[Vehiculo].montoConsignado-(stations[_station].fuels[fuel].price*cantidadSolicitada));\n            stations[_station].fuels[fuel].cantidadDisponible-=cantidadSolicitada;\n            stations[_station].vehicles[Vehiculo].montoConsignado-=stations[_station].fuels[fuel].price*cantidadSolicitada;\n           \n            saldoStacion[_station]=stations[_station].fuels[fuel].price*cantidadSolicitada;//agregamos pago a estacion\n            delete stations[_station].vehicles[Vehiculo];\n            emit entregaCombustible(Vehiculo,cantidadSolicitada);\n        }else {\n            revert();\n        }\n    }\n\n    function consultarSaldoEstacion(uint _station,uint Vehiculo) public view returns (uint){\n        return (stations[_station].vehicles[Vehiculo].montoConsignado);\n    }\n   \n    function SaldoEstacion(uint _station) public view returns (uint){\n        return (saldoStacion[_station]);\n    }\n}",
  "sourcePath": "/home/william/Documentos/Blockchain/gasolinera/contracts/GasStation.sol",
  "compiler": {
    "name": "solc",
    "version": "0.5.8+commit.23d335f2.Emscripten.clang"
  },
  "schemaVersion": "3.0.17",
  "updatedAt": "2019-11-07T20:42:01.645Z",
  "networkType": "ethereum",
  "devdoc": {
    "methods": {}
  },
  "userdoc": {
    "methods": {}
  }
}